:020000040800F2
:10000000500E0020C5010008DF140008CB130008C3
:10001000DD14000825030008251600080000000074
:10002000000000000000000000000000E3140008D1
:100030004103000800000000E1140008E514000876
:10004000DF010008DF010008DF010008DF01000810
:10005000DF010008DF010008DF010008DF01000800
:10006000DF010008DF010008DF010008DF010008F0
:10007000DF010008DF010008DF010008DF010008E0
:10008000DF010008DF010008DF010008DF010008D0
:10009000DF010008DF010008DF010008DF010008C0
:1000A000DF010008DF010008DF010008DF010008B0
:1000B000DF010008DF010008DF010008DF010008A0
:1000C000DF010008DF010008DF010008DF01000890
:1000D000DF010008DF010008DF010008DF01000880
:1000E000DF010008DF010008DF010008DF01000870
:1000F000DF010008DF010008DF010008DF01000860
:10010000DF010008DF010008DF010008DF0100084F
:10011000DF010008DF010008DF010008DF0100083F
:10012000DF01000829030008DF010008DF010008E3
:10013000DF010008DF010008DF010008DF0100081F
:10014000DF010008DF010008DF010008DF0100080F
:10015000DF01000835030008DF0100081916000858
:10016000DF010008DF010008DF010008DF010008EF
:10017000DF010008DF010008DF01000800000000C7
:10018000DF010008DF010008DF010008DF010008CF
:10019000DF010008DF010008DF010008DF010008BF
:1001A0000000000000000000DF010008DFF810D0B0
:1001B00000F0A6F800F074F8004800470922000893
:1001C000500E00200648804706480047FEE7FEE73D
:1001D000FEE7FEE7FEE7FEE7FEE7FEE7FEE7FEE7F7
:1001E000E9140008AD0100082DE9F05F0546002084
:1001F00092469B4688460646814640241BE0284698
:1002000041464746224600F06AF853465A46C01A0D
:10021000914110D311461846224600F051F82D1A8C
:1002200067EB01084F4622460120002100F048F804
:1002300017EB00094E41201EA4F10104DFDC484603
:1002400031462A464346BDE8F09F40EA01039B073A
:1002500003D009E008C9121F08C0042AFAD203E03B
:1002600011F8013B00F8013B521EF9D27047D2B29F
:1002700001E000F8012B491EFBD270470022F6E78F
:1002800010B513460A4604461946FFF7F0FF20460C
:1002900010BD421C10F8011B0029FBD1801A7047C9
:1002A00070B5054C054D03E0206820448047241DAF
:1002B000AC42F9D170BD0000602A0008642A000831
:1002C000202A04DB203A00FA02F100207047914016
:1002D000C2F1200320FA03F3194390407047202A0B
:1002E00004DB203A21FA02F00021704721FA02F3E0
:1002F000D040C2F1200291400843194670470000E7
:10030000064C074D06E0E06840F0010394E8070062
:1003100098471034AC42F6D3FFF74CFF402A000850
:10032000602A0008FEE70000014800F01DB8000048
:10033000A4000020014800F017B8000004010020CC
:100340007047704790F83510022903D0802141652D
:1003500001207047052180F835100068016821F000
:1003600001010160002070472DE9F84304464FF079
:100370000009CDF8009063484FF41651A56D006850
:10038000B0FBF1F72E6894F85C10082000FA01F138
:1003900031420FD021680A6852070BD50A6822F053
:1003A00004020A6094F85C108840A860606D40F018
:1003B0000100606594F85C104FF0010808FA01F044
:1003C000304208D021684969090604D5A860606DEB
:1003D00040F00200606594F85C10042088403042D0
:1003E00008D021680968890704D5A860606D40F0CD
:1003F0000400606594F85C1010208840304218D0EA
:1004000021680968090714D5A860206801684903B4
:1004100004D50068000308D5A16C07E00168C90590
:1004200003D4016821F008010160216C09B1204664
:10043000884794F85C1020208840304231D02168F1
:100440000968C9062DD5A86094F8350005282068EC
:10045000016806D0490347D5006800031DD4616CCC
:100460001CE021F0160101602068416921F0800143
:100470004161206C08B9A06C20B12068016821F0AE
:100480000801016094F85C103F208840A86084F85F
:10049000349084F83580216D1FE0E16B09B120466E
:1004A0008847606D00282BD0606DC00714D00520F0
:1004B00084F835002068016821F00101016000988E
:1004C000401C0090B84203D820680068C007F6D1ED
:1004D00084F8349084F83580E16C002910D001B0A4
:1004E0002046BDE8F04308470168C905D5D4016836
:1004F00021F01001016084F8349084F83580CCE755
:10050000BDE8F883140000202DE9F041044600F016
:1005100099F906465CB1002584F83450022084F82D
:1005200035002068016821F0010101600DE0012023
:10053000BDE8F08100F086F9801B052805D9202050
:100540006065032084F83500F2E720680068C00782
:10055000F0D12268116820480140D4E90103184312
:10056000D4E903363343184363691843A369184336
:10057000E3691843236A18430843616A042903D1D5
:10058000D4E90B1319430843106020684069666A78
:1005900020F0070130460E43012704280CD1A06A41
:1005A0000643E06A40B1204601F056FA20B14020EF
:1005B000606584F83570BAE720684661204601F02E
:1005C0002DFB94F85C203F2191408160656584F8A3
:1005D00035700020ACE700003F8010F02DE9F041BD
:1005E0000446866D90F83400002501280DD00120C6
:1005F00084F8340094F835700020012F07D084F877
:10060000340002252846BDE8F0810220FBE70227DE
:1006100084F835706065204601F005F894F85C10A8
:100620003F208840B0602068016841F016010160F9
:100630002068416941F080014161206C20B120684F
:10064000016841F0080101602068016841F0010182
:100650000160D7E770B5044600F0F4F80546601C69
:1006600002D004480078044400F0ECF8401BA0429B
:10067000FAD370BD080000202DE9F84FDFF890B1E3
:1006800000224FF001084FF0030A4FF00F090BF161
:10069000040E00BF0B6808FA02F42340A3426ED197
:1006A0004D68022D01D0122D0ED1D50800EB850C1E
:1006B000DCF820505607F70E09FA07F6B5430E6925
:1006C000BE402E43CCF82060066855000F790AFA28
:1006D00005FC07F0030726EA0C06AF403743076026
:1006E0004E68012E05D0022E03D0112E01D0122EFD
:1006F0000ED18768CE6827EA0C07AE403E4386607D
:100700004668A6430C79C4F3001494403443446013
:10071000C4688E6824EA0C04AE402643C6604C6868
:10072000E4006FD53B4C256845F48045256024687E
:1007300022F0030504F480440094374C2E19D6F8B7
:10074000084895072F0F09FA07F5AC43334DA84227
:1007500001D100252EE0324DA84201D1012529E02A
:10076000304DA84201D1022524E02F4DA84201D1ED
:1007700003251FE02D4DA84202D104251AE041E0D7
:100780002B4DA84201D1052514E02A4DA84201D1E4
:1007900006250FE0284DA84201D107250AE0274D84
:1007A000A84201D1082505E0254DA84201D109251F
:1007B00000E00A25BD402543C6F80858DBF8004094
:1007C0005D464E689C43F60300D51C432C60DEF862
:1007D000004075464E689C43B60300D51C432C6010
:1007E0000B4D08352C684E689C43F60200D51C431F
:1007F0002C60074D0C352C684E689C43B60200D522
:100800001C432C60521C102AFFF444AFBDE8F88F43
:10081000003C0140443802400030014000000240EA
:100820000004024000080240000C02400010024098
:100830000014024000180240001C02400020024048
:100840000024024001488068704700000800002032
:1008500002488168027811448160704708000020D6
:100860000B4810B5016841F400710160016841F462
:1008700080610160016841F480710160032000F033
:100880006FF8002000F006F800F024F8002010BDFA
:10089000003C024070B50D4D04464FF47A71287843
:1008A000B1FBF0F00A490968B1FBF0F000F0E2FAA0
:1008B00048B9102C07D200222146501E00F030F813
:1008C00000206C6070BD012070BD00000800002099
:1008D000140000200A4808B5016841F48041016015
:1008E000006800F4804000900548001F016841F056
:1008F00080510160006800F08050009008BD000049
:1009000044380240002809DB00F01F020121914019
:100910004009800000F1E020C0F80011704700009D
:10092000F0B40E4B1B680C46C3F30223C3F107055A
:10093000042D00D90425191D072901D2002300E048
:10094000DB1E012606FA05F1491E214099409E4012
:10095000761E16403143F0BC01F013B90CED00E0F7
:10096000064900F0070208684FF6FF03184040EA06
:100970000220034A10430860704700000CED00E0BD
:100980000000FA052DE9F0470E46050065D0DFF8B6
:100990001481D8F80000F7B200F00F00B04207D27F
:1009A00088F80070D8F8000000F00F00B04254D171
:1009B00028683D4C810712D5400703D5206840F4D4
:1009C000E05020602878000703D5206840F460409C
:1009D00020602068A96820F0F00008432060287893
:1009E000C0072DD0304968680839012812D0022884
:1009F00013D0032811D00968890700292DDA21684E
:100A000021F0030101432160FFF71CFF814641F201
:100A1000883A0EE009688903EFE709688901ECE785
:100A2000FFF710FFA0EB0901514502D90320BDE8F3
:100A3000F0872068696800F00C00B0EB810FEFD1FF
:100A4000D8F80010404601F00F01B14207D90770F5
:100A5000006800F00F00B04201D00120E7E72878DD
:100A6000400705D52068E96820F4E050084320607D
:100A70002878000706D52068296920F4604040EAFC
:100A8000C100206000F036F82168084AC1F3031164
:100A9000515CC840064908600020FFF7FBFE0020BB
:100AA000C5E70000003C0240083802405C2800080E
:100AB000140000200448054900680968044AC1F38D
:100AC0008221515CC8407047140000200838024061
:100AD0006C2800080448054900680968044AC1F305
:100AE0004231515CC8407047140000200838024071
:100AF0006C280008154810B5006810F00C02144866
:100B000013D01449042A0FD0082A0ED10F4C241FE9
:100B10002268236802F03F025B0207D52068C0F319
:100B20008810A0FB010106E0084610BD2168C1F352
:100B30008811A1FB00010023FFF756FB2168C1F3D8
:100B40000141491C4900B0FBF1F010BD08380240DA
:100B50000024F400001BB7002DE9F84F050076D003
:100B60002878DFF8F8B2BE4CC00749D0DBF8001097
:100B70005846C1F38101012908D00068C0F3810003
:100B800002280AD1201D0068400206D52068800393
:100B900036D568680028E2D032E06868B0F5803F5A
:100BA00010D0B0F5A02F206810D020F48030206045
:100BB000206820F4802020606868A0B1FFF742FE22
:100BC00006460CE0206840F48030F4E740F48020D2
:100BD0002060F7E7FFF736FE801B642873D8206893
:100BE0008003F7D50CE0FFF72DFE064605E000BFB9
:100BF000FFF728FE801B6428F0D820688003F7D414
:100C00002878DFF8608280074FF000093ED5DBF8D6
:100C10000010584611F00C0F09D00068C0F3810095
:100C200002280BD18D48001F0068400206D42068BE
:100C3000800715D5E868012809D111E0E868B8B146
:100C40000120C8F80000FFF7FDFD064605E002E1BF
:100C5000FFF7F8FD801B0228C0D820688007F7D571
:100C60002068296920F0F80040EAC10020600DE00A
:100C7000C8F80090FFF7E6FD064604E0FFF7E2FD46
:100C8000801B02281FD820688007F7D42878000727
:100C900022D5724E744869696C3671B101210160C8
:100CA000FFF7D0FD074604E0FFF7CCFDC01B02288C
:100CB00009D830688007F7D50EE0C0F80090FFF73C
:100CC000C1FD074605E083E0FFF7BCFDC01B02281D
:100CD0007ED830688007F7D42878400768D5DFF8D9
:100CE0007CA100270AF1380ADAF80000C0000BD412
:100CF000DAF8001041F08051CAF80010DAF800006C
:100D0000012700F080500090584E3068C00510D484
:100D1000306840F480703060FFF794FD009005E08B
:100D2000FFF790FD0099401A022851D83068C0059D
:100D3000F6D54A4EA868683601280FD005283068D5
:100D400010D020F001003060306820F004003060E6
:100D5000A868B8B1FFF776FD00900FE0306840F06A
:100D60000100F4E740F004003060F7E7FFF76AFDA8
:100D70000099411A41F28830814264D83068800776
:100D8000F4D50EE0FFF75EFD009007E0FFF75AFD97
:100D90000099411A41F28830814254D83068800766
:100DA000F4D42FB1DAF8001021F08051CAF8001005
:100DB000A869C0B3DBF80010C1F3810102294AD051
:100DC0000228484607D0C8F86000FFF73BFD00E066
:100DD00039E005463AE04746C8F86000FFF732FDC3
:100DE000064604E0FFF72EFD801B02282BD8206862
:100DF0008001F7D4D5E907010843A96A1C4A4908CC
:100E000002EB01416A6A41EA8211084395F82C100D
:100E100040EA01611148001F016001203866FFF7B8
:100E200011FD054605E014E0FFF70CFD401B02280C
:100E300009D820688001F7D50BE000BFFFF702FD5D
:100E4000401B022802D90320BDE8F88F20688001EA
:100E5000F4D40020F8E70120F6E70000083802404B
:100E60000038024000004742800E474200700040B8
:100E70000000FFFF10B5401EB0F1807F01D30120BC
:100E800010BD4FF0E02460610F21601700F079FE83
:100E90000020A06107202061002010BD70B590F8EF
:100EA0003C20012A19D0012400F83C4F0222427054
:100EB00050F83C3C5A689D6822F070060A68496800
:100EC000324325F0800529435A6050F83C2C91604C
:100ED000447000210170084670BD022070BD10B53D
:100EE000040003D094F83D0010B107E0012010BDCC
:100EF000002084F83C00204600F00CF8022084F822
:100F00003D00211D206800F019FB012084F83D0000
:100F1000002010BD08B50068B0F1804F08D1054829
:100F2000016841F001010160006800F001000090DB
:100F300008BD000040380240022180F83D100168E1
:100F40008A6802F00702062A03D00A6842F001020A
:100F50000A60012180F83D100020704770B50446FA
:100F600090F83C00012817D0012584F83C5002205D
:100F700084F83D002068826822F0770222F47F42E4
:100F800082600868502830D00DDC20284DD005DC68
:100F900098B310283BD148E0022070BD302844D0DF
:100FA000402834D139E0602828D0702806D0B0F528
:100FB000805F2CD0B0F5005F29D10AE0CB68D1E981
:100FC0000121206800F01EFB2068816841F0770154
:100FD00009E0CB68D1E90121206800F013FB20680B
:100FE000816841F48041816011E0CA6849682068E5
:100FF00000F028FE5021206807E016E0CA68496822
:10100000206800F030FE6021206800F091FD84F837
:101010003D50002084F83C0070BDCA6849682068D3
:1010200000F010FE40212068EFE7226801461046DC
:10103000EBE7704770B5026804461068D1685369E1
:1010400010F00F0F50D003F0010501F490763543F6
:101050005DD0C20705D0CA0503D5E26B42F001029C
:10106000E263420705D5DA0703D0E26B42F00202E1
:10107000E263820705D5DA0703D0E26B42F004028F
:10108000E263020705D5DA0703D0E26B42F00802FB
:10109000E263E26B002A33D0800604D5880602D5CD
:1010A000204600F04FFC20684069E16BC0F38010DF
:1010B000090700D428B3204600F04CFD20684169A0
:1010C00049061AD5416921F040014161606BA0B128
:1010D0001B490165606BFFF735F9002810D0606B84
:1010E000016DBDE870400847830610D58B060ED50C
:1010F0002046BDE8704000F025BC2046FFF799FF70
:1011000070BD2046FFF795FF0020E06370BD030629
:1011100006D50B0604D52046BDE8704000F05DBC46
:101120004006F3D54806F1D5D168204621F04001AC
:10113000D160202184F8391000F040F970BD000022
:10114000DF1B000870B5040004D094F839000025B6
:1011500010B106E0012070BD84F83850204600F040
:1011600023F8242084F839002068C16821F4005154
:10117000C160204600F090FA2068016921F4904196
:1011800001612068416921F02A0141612068C1683C
:1011900041F40051C160E563202084F8390084F8EF
:1011A0003A00002070BD00002DE9F04387B00646EC
:1011B00014216846FFF762F83149306888425BD1F4
:1011C00030480025016841F020010160006800F00E
:1011D000200005902B481438016841F0400101605F
:1011E0000068694600F0400005904FF4844000908C
:1011F0000220019001200290032003900820049017
:101200002148FFF739FA224C20484FF480688705BF
:101210002060C4E90175C4E9035865614FF40039E1
:10122000A561C4E9075920466562FFF76DF908B169
:10123000FFF787F87463A663154C14486034783060
:10124000E4E802074020A4E82101114844F81459B9
:101250006030A561C4E907596562FFF755F908B127
:10126000FFF76FF83463002211464720A663FFF7AB
:1012700057FB4720FFF746FB07B0BDE8F0830000AF
:101280000014014044380240001802402864024023
:10129000A4000020F8B5044690F83A0020283CD17C
:1012A000C1B3BAB394F83800012836D0012084F8CD
:1012B0003800A162A2850025E563222084F83A0067
:1012C000636B1748D863636B16481864636B1648E2
:1012D000D864606B134605650846666B2168024654
:1012E0003046091DFFF77AF92068016841680091CE
:1012F00084F83850C16841F48071C1602068416948
:1013000041F0010141612068416941F040014161C2
:101310000020F8BDFFE70120FBE70220F9E700000D
:10132000A31B0008411B00084F160008014800F0ED
:10133000ACBC0000680100207047000070B5044696
:1013400090F83900202830D169B362B394F838009E
:1013500001282AD0012084F838002162A284E28486
:101360000025E563212084F83900236B1048D863F9
:10137000236B10481864236B0F48D864206B134606
:1013800005652668206B321DFFF728F921686FF08C
:101390004000086084F838502068416941F08001BD
:1013A0004161002070BD012070BD022070BD0000B1
:1013B000EF1B00084B1B00084F160008014800F007
:1013C0006BBC0000680100207047FEE70D4808B5BF
:1013D000016841F4800101600068002200F480008F
:1013E000009011463920FFF79BFA3920FFF78AFA5F
:1013F000002211464520FFF793FABDE8084045203A
:10140000FFF780BA303802400D4808B5016841F056
:1014100040010160016801F040010091016841F064
:1014200001010160016801F001010091016841F0D2
:1014300080010160006800F08000009008BD00009D
:101440003038024010B586B000241548009401944D
:101450000294039404944FF080410594C0E9001471
:101460008460C46004618461FFF739FD08B1FEF750
:1014700068FF4FF48050009069460948FFF76EFD01
:1014800008B1FEF75EFF049404A905480594FFF730
:1014900005FD002801D0FEF754FF06B010BD000086
:1014A000240000200C4810B50A4901604FF4614146
:1014B0004160002181600C22C160C0E90412816199
:1014C000C161FFF73FFE002803D0BDE81040FEF7E2
:1014D00038BF10BD0014014064000020FEE77047D3
:1014E00070477047FFF7B4B91048016841F47001C4
:1014F00001600F48016841F0010101600C4A0021C0
:101500000832116002680B4B1A400260031D0A4A40
:101510001A60026822F48022026005480C300160E3
:1015200002495806803908607047000088ED00E0E5
:1015300000380240FFFFF6FE10300024F0B50268CC
:10154000254C264D264E274F274B4FF0804CA0426E
:1015500009D0604507D0A84205D0B04203D0B842B8
:1015600001D0984204D122F0700E4A6842EA0E027D
:10157000A0421BD0604519D0A84217D0B04215D068
:10158000B84213D0984211D0184DA8420ED0184D31
:10159000A8420BD0174DA84208D0174DA84205D03D
:1015A000164DA84202D0164DA84203D122F4407530
:1015B000CA682A434D6922F080022A4302608A6881
:1015C000C2620A688262A04201D0984201D10969D0
:1015D000016301214161F0BD0000014000040040B1
:1015E00000080040000C00400004014000400140A1
:1015F000004401400048014000180040001C004029
:101600000020004010B5846842EA032224F47F449D
:101610000A432243826010BD0148FFF70BBD000062
:1016200064000020FEE730B50468256825F48025B5
:101630002560046863608368402B036803D0996069
:101640000068C26030BD9A600068C16030BD70B58E
:10165000846B2068406994F83910C0F3C0100025ED
:10166000212904D118B1E584204600F081FA2068D0
:10167000406994F83A10C0F38010222904D118B1BF
:10168000E585204600F066FAE06B40F01000E0636C
:101690002046FFF7CEFC70BD2DE9F04104460068FE
:1016A0000169E26821F44051114301612169A06898
:1016B000E26908436169114322680843D16849F22D
:1016C0000C6399430143D16020684169A26921F408
:1016D000407111434161E2696425B2F5004F9748BA
:1016E000974922684FF032083FD08A4201D08242A7
:1016F0007CD1FFF7EFF900EBC00101EB001061684E
:101700008900B0FBF1F6FFF7E5F900EBC00101EB52
:10171000001061688900B0FBF1F0B0FBF5F06FF0EC
:101720001801484306EB800108EB0110B0FBF5F00F
:1017300000F0F006FFF7CEF900EBC00101EB00105E
:1017400061688900B0FBF1F0B0FBF5F006EB001624
:10175000FFF7C0F900EBC00101EB001061688900E0
:10176000B0FBF1F7FFF7B6F9D2E08A4201D082422E
:101770003DD1FFF7AFF900EBC00101EB001061684C
:101780004900B0FBF1F0B0FBF5F00601FFF7A2F95C
:1017900000EBC00101EB001061684900B0FBF1F7FC
:1017A000FFF798F900EBC00101EB001061684900F8
:1017B000B0FBF1F0B0FBF5F06FF01801484307EB18
:1017C000800108EBC100B0FBF5F000F0F80006EB7B
:1017D0004006FFF77FF900EBC00101EB00106168E4
:1017E0004900B0FBF1F7FFF775F93CE055E0FFF772
:1017F00061F900EBC00101EB001061684900B0FB2A
:10180000F1F0B0FBF5F00601FFF754F900EBC00171
:1018100001EB001061684900B0FBF1F7FFF74AF9EE
:1018200000EBC00101EB001061684900B0FBF1F072
:10183000B0FBF5F06FF01801484307EB800108EBAF
:10184000C100B0FBF5F000F0F80006EB4006FFF732
:1018500031F900EBC00101EB001061684900B0FBF9
:10186000F1F7FFF727F900EBC00101EB0010616809
:101870004900B0FBF1F0B0FBF5F06FF01801484300
:1018800007EB800108EBC100B0FBF5F000F00700AA
:10189000216830448860BDE8F081FFF70BF900EB68
:1018A000C00101EB001061688900B0FBF1F6FFF7A1
:1018B00001F900EBC00101EB001061688900B0FB89
:1018C000F1F0B0FBF5F06FF01801484306EB800132
:1018D00008EB0110B0FBF5F000F0F006FFF7EAF8B6
:1018E00000EBC00101EB001061688900B0FBF1F072
:1018F000B0FBF5F006EB0016FFF7DCF800EBC001DB
:1019000001EB001061688900B0FBF1F7FFF7D2F836
:1019100000EBC00101EB001061688900B0FBF1F041
:10192000B0FBF5F06FF01801484307EB800108EBBE
:101930000110B0FBF5F000F00F00A9E70014014022
:101940000010014010B590F83A10222901D0022071
:1019500010BD8168B1F5805F11D00169002901686F
:101960001FD0496801F07F03816A4A1C82620B70B4
:10197000C18D491E0904090CC18518D02BE00269EC
:10198000816A002A0268526805D0D2B20A80816A50
:10199000491C8162ECE7C2F308020A80816A891C53
:1019A000F7E74A68816A4B1C83620A70E0E70168C6
:1019B000CA6822F02002CA600168CA6822F48072F4
:1019C000CA6001684A6922F001024A61202180F858
:1019D0003A10FFF7ABFC002010BD90F83910212918
:1019E00001D0022070478168B1F5805F016A0BD099
:1019F0004A1C0262026809785160C18C491E0904C0
:101A0000090CC1840ED017E009880268C1F30801EF
:101A1000516001690029016A02D0491C0162ECE7AA
:101A2000891CFBE70168CA6822F08002CA6000686E
:101A3000C16841F04001C16000207047044940681E
:101A40000A4648600348D0E9021003681B6818473B
:101A5000000000203C08002010B5014600208B69E2
:101A60008A6A4FF0C07453B1B3F5005F15D072B1FC
:101A7000012A0CD0022A0AD0032A09D104E01AB1A3
:101A8000012A06D0022A03D1C96AC90100D5012062
:101A900010BDC96AA142FAD010BD002AF7D0012AB0
:101AA000F2D0022AF3D0032AF3D010BD30B593B0A0
:101AB00030216846FEF7E2FB14210CA8FEF7DEFB9E
:101AC00019480025016841F080510160006800F06C
:101AD000805011901548016821F4404141F4804143
:101AE00001600068022400F440401190012003903E
:101AF00010200490009406940820CDE9075040205F
:101B0000CDE9090404200B906846FFF725F80CA9DD
:101B10000F2081E83100E002CDE90F0502210CA879
:101B2000FEF730FF13B030BD403802400070004077
:101B3000826822F070020A4342F007018160704718
:101B400010B5806BFFF7F8FB10BD10B5806BFFF789
:101B50003BFC10BD0168CA6822F49072CA6001683B
:101B60004A6922F001024A61202180F83A10704748
:101B70000168CA6822F0C002CA60202180F83910CA
:101B800070470907090E002804DB00F1E02080F807
:101B90000014704700F00F0000F1E02080F8141DE1
:101BA000704710B50146806B09680968C90513D4F0
:101BB0000021C1850168CA6822F48072CA60016888
:101BC0004A6922F001024A6101684A6922F0400232
:101BD0004A61202180F83A10FFF7A8FB10BD10B52C
:101BE000806B0021C185C184FFF723FA10BD10B5B9
:101BF0000146806B09680968C9050CD40021C184BD
:101C000001684A6922F080024A610068C16841F0B7
:101C10004001C16010BDFFF7D1FB10BD0168182362
:101C2000CAB2103AB2FBF3F2054B6FF30901032A73
:101C30009B5CC36500D9091D81650846704700009B
:101C40005428000810B5036A046A24F001040462F1
:101C5000846924F0F00444EA021423F00A020A43DF
:101C60008461026210BD10B5036A23F010030362A1
:101C70008369046A23F4704343EA023224F0A00328
:101C800043EA01118261016210BD436800F108015D
:101C900080221846FFF7FEBA70B54368044693F8F1
:101CA000390020281FD1104D287800281BD1012091
:101CB0002870D4E96310814213D0884201D2091AF6
:101CC00001E0C0F580718EB204F18C01014432460E
:101CD0001846FFF733FB94F890013044C0B2C4F8C3
:101CE00090010020287070BD200000202DE9F041F7
:101CF00005460F7800790E46B84204D2B900E8686C
:101D000000F094FAE860042400202F71804611E06E
:101D10003119325D4B7842EA03228B78C97842EA66
:101D2000034242EA0161A960EA6842F82010401CBF
:101D3000C0B2241D29798142EAD8375D287C641C11
:101D4000B84204D2B900A86900F070FAA861002076
:101D50002F74E41C12E03119325D4B7842EA032201
:101D60008B78C97842EA034242EA01616961D5E9A8
:101D7000052141F82020401CC0B2241D297C81424D
:101D8000E9D8375D287F641CB84204D2B900686A7C
:101D900000F04CFA6862E01C2F77002218E031183E
:101DA000001D0C6803460146204404E0745C77186B
:101DB000491C07F8014C8842F8D88419F11804F836
:101DC000018C491E29626B6A43F82210521CD2B260
:101DD000297F9142E3D8BDE8F081000000487047B8
:101DE0001829000800487047382800080048704744
:101DF00039290008004870475A29000800487047F0
:101E00006D290008004870478E29000810B5064B60
:101E10000A68B2FBF3F403FB1424B2FBF3F2036889
:101E20001A4402600C6010BD00CA9A3B0A784260F6
:101E30004B7842EA032242608B7842EA03424260D6
:101E4000CB7842EA036242600B790A1D83604979CC
:101E500043EA01218160937841EA03418160D278AD
:101E600041EA026181600820704700000048704725
:101E7000E029000800487047012A000802490022B2
:101E8000C0E9001282607047F028000870B504466F
:101E9000086804231A46184404E08D5C8E18521C0E
:101EA00006F8015C9042F8D845180022194405F85C
:101EB000012C491E616070BD004870470F2A000860
:101EC00000487047302A00082DE9F04106460079A5
:101ED00008700020487088700D46C87004240146C0
:101EE0000DE0F2682B1952F821202A55170A5F706D
:101EF000170C120E491C9F70DA70C9B2241D32797A
:101F00008A42EED8317C2955641C00222855641C75
:101F10002855641C2855641C0DE0B1692B1951F833
:101F2000221029550F0A5F700F0C090E521C9F706A
:101F3000D970D2B2241D317C9142EED8317F29551F
:101F4000641C00272855641C2855641C2855641CF3
:101F500012E0706A50F82700FEF79BF929198046B5
:101F60000860706A241D424650F827102819FEF7B1
:101F70006CF97F1C4444FFB2307FB842E9D8204658
:101F8000BDE8F08170B50646007908700C46B0686F
:101F9000FEF77FF90546C4F80100601D2A46B168C6
:101FA000FEF753F9681D70BD2DE9F0410546007933
:101FB0000870A8880C46000A4870A868FEF769F9FE
:101FC0000646C4F80200A01D3246A968FEF73DF996
:101FD000B61DE868FEF75DF90746A019361D0760D3
:101FE000A0193A46E968FEF730F93E442869FEF741
:101FF00050F90746A019361D0760A0193A4629690D
:10200000FEF723F9F0196969221821540B0A53705D
:102010000B0C090E9370D170001DBDE8F0810279A0
:102020000A708288120A4A704268120C8A704268EA
:10203000120ECA70027A0A710289130A0A1D4B71C4
:102040008168090C91708068000ED070082070477C
:1020500070B506460C464068FEF71BF90546206041
:10206000201D2A467168FEF7F0F8281D70BD00009B
:1020700030B528B1144C031F002021680A4605E042
:10208000084630BD9A4203D810465268002AF9D15A
:10209000002800D041680BD00468A3EB0005A542DE
:1020A00004D11B681C440346046002E0436000E066
:1020B00023603AB11C68D51AA54203D115682C4497
:1020C0001C6052685A6030BD180000202DE9F047AE
:1020D00082460F4C10480D4E0E4F001B4FF000086B
:1020E00020F007054FF0010900221146504600F08C
:1020F00057F8002802D1306810B10020BDE8F08701
:102100003C60C4E90058C6F80090EDE71C000020D0
:102110005408002018000020500A002002E008C8DF
:10212000121F08C1002AFAD170477047002001E051
:1021300001C1121F002AFBD17047000070B50C4886
:1021400000F034FB0B480C49114A01600B480CA508
:102150000E4C0260C16001238560C0E90543002187
:102160001C30044A0BA30161C0E9003270BD0000BD
:102170006401002000000020082900082008002039
:1021800070635F746F5F73746D3332003D1A0008C3
:10219000C428000873746D33325F746F5F7063001E
:1021A0002DE9F0410B3020F00706104D19E02068B2
:1021B000B04215D3B0420AD9871B201DD4F8048041
:1021C000FEF743F8A019C0E90078286004E06068D1
:1021D0002860201DFEF739F8201D2660BDE8F0813B
:1021E000251D2C68002CE2D10020F7E71800002004
:1021F00010B54FF4FA70FEF72DFABDE81040014813
:1022000000F08EB964010020FEF72AFBFFF74EFCB8
:10221000FFF7FAF8FFF7DAF8FFF714F9FFF742F9DA
:1022200000F03AF8FFF7E4FFFCE700002DE9F04783
:1022300004008A4616D054F8047CD4F800903E1F5F
:10224000564500D956462046FFF712FF05468846F8
:10225000324621465046FFF7A3FF40B1C0F8009038
:10226000BDE8F087BDE8F0470846FFF72FBF44E917
:10227000017955B129686A18211F8A4202D9611B68
:10228000091F2960C5F80480EAE7024AC2F8008005
:10229000E6E700001800002070B51C4C251D2846FC
:1022A000FFF7F3FC2868FEF747FE0020C4F86C0631
:1022B000C4F87006C4F87806224602F5DB61C4F85B
:1022C000740600BF02EB8003D3F8A4357BB1401C39
:1022D0001928F7DB0D49002001F2BC6201EB8003F5
:1022E000D3F808365BB1401C1928F7DB70BD02EB50
:1022F00080037D30C3F8A415C1E90202EAE701EBCF
:1023000080016430C1F80826506070BD640100206F
:1023100000487047302A00088069704770B504464D
:102320000C300546FFF7B2FD28466169BDE87040F4
:1023300008470000004870470F2A0008F0B587B032
:1023400004462C4800254FF40076009004EB8507E6
:10235000D7F8A405E8B10089ADF80400D7F8A405C2
:1023600000680290D7F8A40507F2A45740680168F6
:10237000896888470390386840680168C968884759
:10238000CDE9040638686A4601692068036820467A
:1023900098476D1C192DD9DB5FF0000504EB85070C
:1023A000D7F80806F0B18088ADF80400D7F8080621
:1023B00080680290D7F8080607F5C1670168896848
:1023C0008847039038680168C9688847CDE90406E2
:1023D0003868016849688847014620686A4603688A
:1023E000204698476D1C192DD8DB012084F8800603
:1023F00007B0F0BDAC2800083EB504466846FFF7BC
:102400003DFD20686A460A210368204698476068B7
:102410000068406AC4F898013EBD00002DE9FE4303
:102420000D460446642903DB94F88006002860D03A
:10243000106804F2AB31036810469847FF2184F816
:10244000A413FE2184F8A51384F8A603010A84F8D6
:10245000A7130144C9B2C1F1FF0184F8A81384F89D
:10246000A953290A84F8AA1300210522C31D04E0F8
:10247000A518521C95F8A45329449A42F8D3CA17B8
:1024800001EB126222F0FF02891AC01D2218401CC3
:10249000C1F1FF0182F8A4130546B0F5007F2AD8E8
:1024A000261D4FF4807704F56978BD4200DC0746AD
:1024B000D6F88C11C1F58074BC4200D33C4606F1BD
:1024C0008C0901EB090022464146FDF7BEFE96F855
:1024D0008C01A7423844C0B2C6F88C0105D03A1B23
:1024E00008EB04014846FDF7B0FE3046FFF7D4FB89
:1024F0002846BDE8FE8308490322084B00938DF867
:1025000004200291216820466A460B6807219847FB
:102510004FF0FF30EDE70000A729000894280008DD
:102520002DE9FF5F044640680068456AD4F88806D4
:1025300042F6F821281A0026884201D984F88066DC
:10254000D4F86C0628B1D4F88C06A84201D2C4F89D
:102550006C66DFF84C924FF0FF3B4FF008084FF0ED
:10256000010A04F5D277A068211D406B006840681D
:10257000404200F07F02D4F88C0082420AD001F180
:102580000803421C41F8882FC05C02F07F020A60F9
:10259000002812DA94F8800658B1D4F8840640F680
:1025A000C411281A884204D92046FFF725FFC4F831
:1025B0008456002004B0BDE8F09FD4F87C160A18B9
:1025C000C4F87C26D4F86C16072928D099B30129C1
:1025D0004AD0022956D003295AD0042962D00529AD
:1025E00069D0062970D00829BDD102EA0902C4F8D1
:1025F0006C66FF2AB7D1D4F87406A0B30A2871D04C
:10260000062870D00B286FD004EB8000D0F8780437
:102610000028A8D001680A6839469047A3E7D4F893
:1026200078164A1CC4F87826C855D4F87006401E9F
:10263000C4F8700653E002E0C4F86C8693E7FF2804
:102640000AD060680068406A401B05288BD984F86E
:1026500080666FF00100ADE705F11400C4F86CA6C8
:10266000C4F88C067FE740E0FE2809D0C4F86C6609
:1026700094F880060028D1D12046FFF7BDFE72E70E
:1026800002200CE0C4F878660321C4F8700615E057
:10269000D4F8701601EB0020C4F870060420C4F8CA
:1026A0006C0660E702EA0902FF2A02D0C4F86C66F1
:1026B00059E70520F3E70621C4F87406C4F86C1640
:1026C000C4F87C064FE7FFE7D4F8741601EB00204E
:1026D000C4F874060720C4F86C06D4F87006002805
:1026E0009CD1A9E70DE050E057E02046FFF784FEBB
:1026F0002046FFF723FEC4F884565846C4F888568F
:1027000058E701A8FFF7BAFB60680068406AD4F890
:102710009811411A0091394601A8FFF787FB0099EB
:102720004FF47A70B1FBF0F1029A114402910099D2
:10273000B1FBF0F200FB121143F609525143039A28
:1027400002EB8111039161680968496A029BB1FB40
:10275000F0F29A1A521EC4F89C21B1FBF0F200FB71
:10276000121010494843104901EB801003990844A6
:1027700004F5D071C4F8A001081FFFF747FB60689B
:102780000068406AC4F88806EDE6394604F29460B1
:10279000FFF7ACFA84F890A6E5E684F88066E2E6F6
:1027A000FF000080F7C2FFFF00CA9A3B10B51E4928
:1027B00001601E4941601E4981600021C0F88C10F3
:1027C000C0F89011C0F8941140F2946280F880161D
:1027D000184B13504FEA010200EB8203521CC3F85E
:1027E000A415192AF8D3002200EB8203521CC3F867
:1027F0000816192AF8D300224FF400738418521CCB
:1028000084F8A4119A42F9D300228418521C84F847
:10281000A4139A42F9D3C0F8A01680F8A416C0F801
:10282000AC1680F8981610BDDC28000824000020A3
:10283000640000207C280008726F73736572696100
:102840006C5F6D7367732F5265717565737450613A
:1028500072616D00000610160006101600000000E0
:102860000000000001020304060708090000000040
:10287000010203040000000000000000C91E00085F
:10288000ED1C0008E51D0008DD1D0008000000002B
:1028900000000000851F000800000000F51D000872
:1028A000ED1D00080000000000000000A91F000846
:1028B00000000000051E0008FD1D000800000000CB
:1028C000000000001D230008192300081123000840
:1028D0003523000800000000000000001D2400084F
:1028E000212500080000000000000000000000009A
:1028F0001F2000082D1E0008751E00086D1E000810
:102900000000000000000000512000088D1E00089B
:10291000C11E0008B91E0008396630653938626486
:102920006136353938313938366464663533616635
:102930006137613430653439003131616264373375
:1029400031633235393333323631636436313833BB
:1029500062643132643632393500726F7373657276
:1029600069616C5F6D7367732F4C6F6700306164D2
:102970003531663838666334343839326638633115
:102980003036383430373736343630303500726FC1
:102990007373657269616C5F6D7367732F546F70C9
:1029A0006963496E666F004D657373616765206684
:1029B000726F6D206465766963652064726F7070F4
:1029C00065643A206D657373616765206C61726739
:1029D0006572207468616E206275666665722E008D
:1029E00063643731363663373463353532633331B8
:1029F00031666263633266653561376263323839E6
:102A0000007374645F6D7367732F54696D6500396B
:102A10003932636538613136383763656338633816
:102A2000626438383365633733636134316431004D
:102A30007374645F6D7367732F537472696E67008C
:102A4000642A000800000020240000001C21000867
:102A5000882A0008240000202C0E00002C210008E9
:102A6000DDF6FFFF00000000000000000100000094
:102A700010000000000000000024F400000000002E
:082A800000000000000000004E
:04000005080001AD41
:00000001FF
